{
  "_format": "hh-sol-artifact-1",
  "contractName": "MyNFTContract",
  "sourceName": "contracts/MyNFT.sol",
  "abi": [
    {
      "inputs": [],
      "stateMutability": "nonpayable",
      "type": "constructor"
    },
    {
      "inputs": [],
      "name": "ApprovalCallerNotOwnerNorApproved",
      "type": "error"
    },
    {
      "inputs": [],
      "name": "ApprovalQueryForNonexistentToken",
      "type": "error"
    },
    {
      "inputs": [],
      "name": "BalanceQueryForZeroAddress",
      "type": "error"
    },
    {
      "inputs": [],
      "name": "MintERC2309QuantityExceedsLimit",
      "type": "error"
    },
    {
      "inputs": [],
      "name": "MintToZeroAddress",
      "type": "error"
    },
    {
      "inputs": [],
      "name": "MintZeroQuantity",
      "type": "error"
    },
    {
      "inputs": [],
      "name": "OwnerQueryForNonexistentToken",
      "type": "error"
    },
    {
      "inputs": [],
      "name": "OwnershipNotInitializedForExtraData",
      "type": "error"
    },
    {
      "inputs": [],
      "name": "TransferCallerNotOwnerNorApproved",
      "type": "error"
    },
    {
      "inputs": [],
      "name": "TransferFromIncorrectOwner",
      "type": "error"
    },
    {
      "inputs": [],
      "name": "TransferToNonERC721ReceiverImplementer",
      "type": "error"
    },
    {
      "inputs": [],
      "name": "TransferToZeroAddress",
      "type": "error"
    },
    {
      "inputs": [],
      "name": "URIQueryForNonexistentToken",
      "type": "error"
    },
    {
      "anonymous": false,
      "inputs": [
        {
          "indexed": true,
          "internalType": "address",
          "name": "owner",
          "type": "address"
        },
        {
          "indexed": true,
          "internalType": "address",
          "name": "approved",
          "type": "address"
        },
        {
          "indexed": true,
          "internalType": "uint256",
          "name": "tokenId",
          "type": "uint256"
        }
      ],
      "name": "Approval",
      "type": "event"
    },
    {
      "anonymous": false,
      "inputs": [
        {
          "indexed": true,
          "internalType": "address",
          "name": "owner",
          "type": "address"
        },
        {
          "indexed": true,
          "internalType": "address",
          "name": "operator",
          "type": "address"
        },
        {
          "indexed": false,
          "internalType": "bool",
          "name": "approved",
          "type": "bool"
        }
      ],
      "name": "ApprovalForAll",
      "type": "event"
    },
    {
      "anonymous": false,
      "inputs": [
        {
          "indexed": true,
          "internalType": "uint256",
          "name": "fromTokenId",
          "type": "uint256"
        },
        {
          "indexed": false,
          "internalType": "uint256",
          "name": "toTokenId",
          "type": "uint256"
        },
        {
          "indexed": true,
          "internalType": "address",
          "name": "from",
          "type": "address"
        },
        {
          "indexed": true,
          "internalType": "address",
          "name": "to",
          "type": "address"
        }
      ],
      "name": "ConsecutiveTransfer",
      "type": "event"
    },
    {
      "anonymous": false,
      "inputs": [
        {
          "indexed": true,
          "internalType": "address",
          "name": "previousOwner",
          "type": "address"
        },
        {
          "indexed": true,
          "internalType": "address",
          "name": "newOwner",
          "type": "address"
        }
      ],
      "name": "OwnershipTransferred",
      "type": "event"
    },
    {
      "anonymous": false,
      "inputs": [
        {
          "indexed": true,
          "internalType": "address",
          "name": "from",
          "type": "address"
        },
        {
          "indexed": true,
          "internalType": "address",
          "name": "to",
          "type": "address"
        },
        {
          "indexed": true,
          "internalType": "uint256",
          "name": "tokenId",
          "type": "uint256"
        }
      ],
      "name": "Transfer",
      "type": "event"
    },
    {
      "inputs": [],
      "name": "_baseTokenURI",
      "outputs": [
        {
          "internalType": "string",
          "name": "",
          "type": "string"
        }
      ],
      "stateMutability": "view",
      "type": "function"
    },
    {
      "inputs": [
        {
          "internalType": "uint256",
          "name": "",
          "type": "uint256"
        }
      ],
      "name": "_ownerOf",
      "outputs": [
        {
          "internalType": "address",
          "name": "",
          "type": "address"
        }
      ],
      "stateMutability": "view",
      "type": "function"
    },
    {
      "inputs": [
        {
          "internalType": "uint256",
          "name": "",
          "type": "uint256"
        }
      ],
      "name": "_tokenURIs",
      "outputs": [
        {
          "internalType": "string",
          "name": "",
          "type": "string"
        }
      ],
      "stateMutability": "view",
      "type": "function"
    },
    {
      "inputs": [
        {
          "internalType": "address",
          "name": "to",
          "type": "address"
        },
        {
          "internalType": "uint256",
          "name": "tokenId",
          "type": "uint256"
        }
      ],
      "name": "approve",
      "outputs": [],
      "stateMutability": "payable",
      "type": "function"
    },
    {
      "inputs": [
        {
          "internalType": "address",
          "name": "owner",
          "type": "address"
        }
      ],
      "name": "balanceOf",
      "outputs": [
        {
          "internalType": "uint256",
          "name": "",
          "type": "uint256"
        }
      ],
      "stateMutability": "view",
      "type": "function"
    },
    {
      "inputs": [],
      "name": "base_URI",
      "outputs": [
        {
          "internalType": "string",
          "name": "",
          "type": "string"
        }
      ],
      "stateMutability": "view",
      "type": "function"
    },
    {
      "inputs": [
        {
          "internalType": "uint256",
          "name": "tokenId",
          "type": "uint256"
        }
      ],
      "name": "burn",
      "outputs": [],
      "stateMutability": "nonpayable",
      "type": "function"
    },
    {
      "inputs": [
        {
          "internalType": "uint256",
          "name": "tokenId",
          "type": "uint256"
        }
      ],
      "name": "getApproved",
      "outputs": [
        {
          "internalType": "address",
          "name": "",
          "type": "address"
        }
      ],
      "stateMutability": "view",
      "type": "function"
    },
    {
      "inputs": [
        {
          "internalType": "address",
          "name": "owner",
          "type": "address"
        },
        {
          "internalType": "address",
          "name": "operator",
          "type": "address"
        }
      ],
      "name": "isApprovedForAll",
      "outputs": [
        {
          "internalType": "bool",
          "name": "",
          "type": "bool"
        }
      ],
      "stateMutability": "view",
      "type": "function"
    },
    {
      "inputs": [
        {
          "internalType": "address",
          "name": "minter",
          "type": "address"
        },
        {
          "internalType": "uint256",
          "name": "quantity",
          "type": "uint256"
        }
      ],
      "name": "mint",
      "outputs": [],
      "stateMutability": "payable",
      "type": "function"
    },
    {
      "inputs": [],
      "name": "name",
      "outputs": [
        {
          "internalType": "string",
          "name": "",
          "type": "string"
        }
      ],
      "stateMutability": "view",
      "type": "function"
    },
    {
      "inputs": [],
      "name": "owner",
      "outputs": [
        {
          "internalType": "address",
          "name": "",
          "type": "address"
        }
      ],
      "stateMutability": "view",
      "type": "function"
    },
    {
      "inputs": [
        {
          "internalType": "uint256",
          "name": "tokenId",
          "type": "uint256"
        }
      ],
      "name": "ownerOf",
      "outputs": [
        {
          "internalType": "address",
          "name": "owner",
          "type": "address"
        }
      ],
      "stateMutability": "view",
      "type": "function"
    },
    {
      "inputs": [],
      "name": "renounceOwnership",
      "outputs": [],
      "stateMutability": "nonpayable",
      "type": "function"
    },
    {
      "inputs": [
        {
          "internalType": "address",
          "name": "from",
          "type": "address"
        },
        {
          "internalType": "address",
          "name": "to",
          "type": "address"
        },
        {
          "internalType": "uint256",
          "name": "tokenId",
          "type": "uint256"
        }
      ],
      "name": "safeTransferFrom",
      "outputs": [],
      "stateMutability": "payable",
      "type": "function"
    },
    {
      "inputs": [
        {
          "internalType": "address",
          "name": "from",
          "type": "address"
        },
        {
          "internalType": "address",
          "name": "to",
          "type": "address"
        },
        {
          "internalType": "uint256",
          "name": "tokenId",
          "type": "uint256"
        },
        {
          "internalType": "bytes",
          "name": "_data",
          "type": "bytes"
        }
      ],
      "name": "safeTransferFrom",
      "outputs": [],
      "stateMutability": "payable",
      "type": "function"
    },
    {
      "inputs": [
        {
          "internalType": "address",
          "name": "operator",
          "type": "address"
        },
        {
          "internalType": "bool",
          "name": "approved",
          "type": "bool"
        }
      ],
      "name": "setApprovalForAll",
      "outputs": [],
      "stateMutability": "nonpayable",
      "type": "function"
    },
    {
      "inputs": [
        {
          "internalType": "string",
          "name": "baseURI",
          "type": "string"
        }
      ],
      "name": "setBaseURI",
      "outputs": [],
      "stateMutability": "nonpayable",
      "type": "function"
    },
    {
      "inputs": [
        {
          "internalType": "uint256",
          "name": "tokenId",
          "type": "uint256"
        }
      ],
      "name": "setTokenURI",
      "outputs": [],
      "stateMutability": "nonpayable",
      "type": "function"
    },
    {
      "inputs": [
        {
          "internalType": "bytes4",
          "name": "interfaceId",
          "type": "bytes4"
        }
      ],
      "name": "supportsInterface",
      "outputs": [
        {
          "internalType": "bool",
          "name": "",
          "type": "bool"
        }
      ],
      "stateMutability": "view",
      "type": "function"
    },
    {
      "inputs": [],
      "name": "symbol",
      "outputs": [
        {
          "internalType": "string",
          "name": "",
          "type": "string"
        }
      ],
      "stateMutability": "view",
      "type": "function"
    },
    {
      "inputs": [
        {
          "internalType": "uint256",
          "name": "tokenId",
          "type": "uint256"
        }
      ],
      "name": "tokenURI",
      "outputs": [
        {
          "internalType": "string",
          "name": "",
          "type": "string"
        }
      ],
      "stateMutability": "view",
      "type": "function"
    },
    {
      "inputs": [],
      "name": "totalSupply",
      "outputs": [
        {
          "internalType": "uint256",
          "name": "",
          "type": "uint256"
        }
      ],
      "stateMutability": "view",
      "type": "function"
    },
    {
      "inputs": [
        {
          "internalType": "address",
          "name": "from",
          "type": "address"
        },
        {
          "internalType": "address",
          "name": "to",
          "type": "address"
        },
        {
          "internalType": "uint256",
          "name": "tokenId",
          "type": "uint256"
        }
      ],
      "name": "transferFrom",
      "outputs": [],
      "stateMutability": "payable",
      "type": "function"
    },
    {
      "inputs": [
        {
          "internalType": "address",
          "name": "newOwner",
          "type": "address"
        }
      ],
      "name": "transferOwnership",
      "outputs": [],
      "stateMutability": "nonpayable",
      "type": "function"
    }
  ],
  "bytecode": "0x60806040523480156200001157600080fd5b506040518060400160405280600c81526020016b17d3919510dbdb9d1c9858dd60a21b8152506040518060400160405280600481526020016317d3919560e21b815250816002908162000065919062000183565b50600362000074828262000183565b5050600080555062000086336200008c565b6200024f565b600880546001600160a01b038381166001600160a01b0319831681179093556040519116919082907f8be0079c531659141344cd1fd0a4f28419497f9722a3daafe3b4186f6b6457e090600090a35050565b634e487b7160e01b600052604160045260246000fd5b600181811c908216806200010957607f821691505b6020821081036200012a57634e487b7160e01b600052602260045260246000fd5b50919050565b601f8211156200017e57600081815260208120601f850160051c81016020861015620001595750805b601f850160051c820191505b818110156200017a5782815560010162000165565b5050505b505050565b81516001600160401b038111156200019f576200019f620000de565b620001b781620001b08454620000f4565b8462000130565b602080601f831160018114620001ef5760008415620001d65750858301515b600019600386901b1c1916600185901b1785556200017a565b600085815260208120601f198616915b828110156200022057888601518255948401946001909101908401620001ff565b50858210156200023f5787850151600019600388901b60f8161c191681555b5050505050600190811b01905550565b611a36806200025f6000396000f3fe6080604052600436106101665760003560e01c80636352211e116100d1578063a22cb4651161008a578063c87b56dd11610064578063c87b56dd14610407578063cfc86f7b14610427578063e985e9c51461043c578063f2fde38b1461045c57600080fd5b8063a22cb465146103b4578063b88d4fde146103d4578063bff26126146103e757600080fd5b80636352211e1461030157806370a0823114610337578063715018a6146103575780638da5cb5b1461036c57806395d89b411461038a5780639e8903351461039f57600080fd5b806323b872dd1161012357806323b872dd14610252578063383505411461026557806340c10f191461029b57806342842e0e146102ae57806342966c68146102c157806355f804b3146102e157600080fd5b806301ffc9a71461016b57806306fdde03146101a0578063081812fc146101c2578063095ea7b3146101fa5780630bb78ec11461020f57806318160ddd1461022f575b600080fd5b34801561017757600080fd5b5061018b6101863660046112c8565b61047c565b60405190151581526020015b60405180910390f35b3480156101ac57600080fd5b506101b56104ce565b6040516101979190611335565b3480156101ce57600080fd5b506101e26101dd366004611348565b610560565b6040516001600160a01b039091168152602001610197565b61020d61020836600461137d565b6105a4565b005b34801561021b57600080fd5b506101b561022a366004611348565b610634565b34801561023b57600080fd5b50600154600054035b604051908152602001610197565b61020d6102603660046113a7565b6106ce565b34801561027157600080fd5b506101e2610280366004611348565b600a602052600090815260409020546001600160a01b031681565b61020d6102a936600461137d565b61085f565b61020d6102bc3660046113a7565b610940565b3480156102cd57600080fd5b5061020d6102dc366004611348565b610960565b3480156102ed57600080fd5b5061020d6102fc3660046113e3565b6109e8565b34801561030d57600080fd5b506101e261031c366004611348565b6000908152600a60205260409020546001600160a01b031690565b34801561034357600080fd5b50610244610352366004611455565b6109fd565b34801561036357600080fd5b5061020d610a4c565b34801561037857600080fd5b506008546001600160a01b03166101e2565b34801561039657600080fd5b506101b5610a60565b3480156103ab57600080fd5b506101b5610a6f565b3480156103c057600080fd5b5061020d6103cf366004611470565b610a7e565b61020d6103e23660046114c2565b610aea565b3480156103f357600080fd5b5061020d610402366004611348565b610b34565b34801561041357600080fd5b506101b5610422366004611348565b610bb2565b34801561043357600080fd5b506101b5610c9f565b34801561044857600080fd5b5061018b61045736600461159e565b610cac565b34801561046857600080fd5b5061020d610477366004611455565b610cda565b60006301ffc9a760e01b6001600160e01b0319831614806104ad57506380ac58cd60e01b6001600160e01b03198316145b806104c85750635b5e139f60e01b6001600160e01b03198316145b92915050565b6060600280546104dd906115d1565b80601f0160208091040260200160405190810160405280929190818152602001828054610509906115d1565b80156105565780601f1061052b57610100808354040283529160200191610556565b820191906000526020600020905b81548152906001019060200180831161053957829003601f168201915b5050505050905090565b600061056b82610d50565b610588576040516333d1c03960e21b815260040160405180910390fd5b506000908152600660205260409020546001600160a01b031690565b6000818152600a60205260409020546001600160a01b031633146106065760405162461bcd60e51b81526020600482015260146024820152732737ba10309037bbb732b91037b3103a37b5b2b760611b60448201526064015b60405180910390fd5b6000908152600a6020526040902080546001600160a01b0319166001600160a01b0392909216919091179055565b600b602052600090815260409020805461064d906115d1565b80601f0160208091040260200160405190810160405280929190818152602001828054610679906115d1565b80156106c65780601f1061069b576101008083540402835291602001916106c6565b820191906000526020600020905b8154815290600101906020018083116106a957829003601f168201915b505050505081565b60006106d982610d77565b9050836001600160a01b0316816001600160a01b03161461070c5760405162a1148160e81b815260040160405180910390fd5b600082815260066020526040902080546107388187335b6001600160a01b039081169116811491141790565b610763576107468633610cac565b61076357604051632ce44b5f60e11b815260040160405180910390fd5b6001600160a01b03851661078a57604051633a954ecd60e21b815260040160405180910390fd5b801561079557600082555b6001600160a01b038681166000908152600560205260408082208054600019019055918716808252919020805460010190554260a01b17600160e11b17600085815260046020526040812091909155600160e11b84169003610827576001840160008181526004602052604081205490036108255760005481146108255760008181526004602052604090208490555b505b83856001600160a01b0316876001600160a01b03166000805160206119e183398151915260405160405180910390a45b505050505050565b600081116108af5760405162461bcd60e51b815260206004820152601b60248201527f496e73756666696369656e7420746f6b656e7320746f206d696e74000000000060448201526064016105fd565b6001546000540360095560005b818160ff161015610931576108db8160ff166009546104029190611621565b33600a60008360ff166009546108f19190611621565b8152602081019190915260400160002080546001600160a01b0319166001600160a01b03929092169190911790558061092981611634565b9150506108bc565b5061093c8282610de5565b5050565b61095b83838360405180602001604052806000815250610aea565b505050565b61096981610d50565b6109ad5760405162461bcd60e51b8152602060048201526015602482015274151bdad95b925908191bd95cdb89dd08195e1a5cdd605a1b60448201526064016105fd565b6000818152600a6020908152604080832080546001600160a01b0319169055600b90915281206109dc91611264565b6109e581610dff565b50565b6109f0610e0a565b600c61095b8284836116ae565b60006001600160a01b038216610a26576040516323d3ad8160e21b815260040160405180910390fd5b506001600160a01b031660009081526005602052604090205467ffffffffffffffff1690565b610a54610e0a565b610a5e6000610e64565b565b6060600380546104dd906115d1565b6060600c80546104dd906115d1565b3360008181526007602090815260408083206001600160a01b03871680855290835292819020805460ff191686151590811790915590519081529192917f17307eab39ab6107e8899845ad3d59bd9653f200f220920489ca2b5937696c31910160405180910390a35050565b610af58484846106ce565b6001600160a01b0383163b15610b2e57610b1184848484610eb6565b610b2e576040516368d2bf6b60e11b815260040160405180910390fd5b50505050565b600c8054610b41906115d1565b9050600003610b5f5760405180602001604052806000815250610b8b565b600c610b6a82610fa1565b604051602001610b7b929190611768565b6040516020818303038152906040525b600d90610b9890826117ff565b506000818152600b6020526040902061093c600d826118b9565b6060610bbd82610d50565b610c015760405162461bcd60e51b8152602060048201526015602482015274151bdad95b925908191bd95cdb89dd08195e1a5cdd605a1b60448201526064016105fd565b6000828152600b602052604090208054610c1a906115d1565b80601f0160208091040260200160405190810160405280929190818152602001828054610c46906115d1565b8015610c935780601f10610c6857610100808354040283529160200191610c93565b820191906000526020600020905b815481529060010190602001808311610c7657829003601f168201915b50505050509050919050565b600c805461064d906115d1565b6001600160a01b03918216600090815260076020908152604080832093909416825291909152205460ff1690565b610ce2610e0a565b6001600160a01b038116610d475760405162461bcd60e51b815260206004820152602660248201527f4f776e61626c653a206e6577206f776e657220697320746865207a65726f206160448201526564647265737360d01b60648201526084016105fd565b6109e581610e64565b60008054821080156104c8575050600090815260046020526040902054600160e01b161590565b600081600054811015610dcc5760008181526004602052604081205490600160e01b82169003610dca575b80600003610dc3575060001901600081815260046020526040902054610da2565b9392505050565b505b604051636f96cda160e11b815260040160405180910390fd5b61093c828260405180602001604052806000815250610fe5565b6109e5816000611052565b6008546001600160a01b03163314610a5e5760405162461bcd60e51b815260206004820181905260248201527f4f776e61626c653a2063616c6c6572206973206e6f7420746865206f776e657260448201526064016105fd565b600880546001600160a01b038381166001600160a01b0319831681179093556040519116919082907f8be0079c531659141344cd1fd0a4f28419497f9722a3daafe3b4186f6b6457e090600090a35050565b604051630a85bd0160e11b81526000906001600160a01b0385169063150b7a0290610eeb903390899088908890600401611986565b6020604051808303816000875af1925050508015610f26575060408051601f3d908101601f19168201909252610f23918101906119c3565b60015b610f84573d808015610f54576040519150601f19603f3d011682016040523d82523d6000602084013e610f59565b606091505b508051600003610f7c576040516368d2bf6b60e11b815260040160405180910390fd5b805181602001fd5b6001600160e01b031916630a85bd0160e11b149050949350505050565b606060a06040510180604052602081039150506000815280825b600183039250600a81066030018353600a900480610fbb5750819003601f19909101908152919050565b610fef838361118a565b6001600160a01b0383163b1561095b576000548281035b6110196000868380600101945086610eb6565b611036576040516368d2bf6b60e11b815260040160405180910390fd5b81811061100657816000541461104b57600080fd5b5050505050565b600061105d83610d77565b90508060008061107b86600090815260066020526040902080549091565b9150915084156110bb57611090818433610723565b6110bb5761109e8333610cac565b6110bb57604051632ce44b5f60e11b815260040160405180910390fd5b80156110c657600082555b6001600160a01b038316600081815260056020526040902080546fffffffffffffffffffffffffffffffff0190554260a01b17600360e01b17600087815260046020526040812091909155600160e11b85169003611154576001860160008181526004602052604081205490036111525760005481146111525760008181526004602052604090208590555b505b60405186906000906001600160a01b038616906000805160206119e1833981519152908390a45050600180548101905550505050565b60008054908290036111af5760405163b562e8dd60e01b815260040160405180910390fd5b6001600160a01b03831660008181526005602090815260408083208054680100000000000000018802019055848352600490915281206001851460e11b4260a01b178317905582840190839083906000805160206119e18339815191528180a4600183015b81811461123a57808360006000805160206119e1833981519152600080a4600101611214565b508160000361125b57604051622e076360e81b815260040160405180910390fd5b60005550505050565b508054611270906115d1565b6000825580601f10611280575050565b601f0160209004906000526020600020908101906109e591905b808211156112ae576000815560010161129a565b5090565b6001600160e01b0319811681146109e557600080fd5b6000602082840312156112da57600080fd5b8135610dc3816112b2565b60005b838110156113005781810151838201526020016112e8565b50506000910152565b600081518084526113218160208601602086016112e5565b601f01601f19169290920160200192915050565b602081526000610dc36020830184611309565b60006020828403121561135a57600080fd5b5035919050565b80356001600160a01b038116811461137857600080fd5b919050565b6000806040838503121561139057600080fd5b61139983611361565b946020939093013593505050565b6000806000606084860312156113bc57600080fd5b6113c584611361565b92506113d360208501611361565b9150604084013590509250925092565b600080602083850312156113f657600080fd5b823567ffffffffffffffff8082111561140e57600080fd5b818501915085601f83011261142257600080fd5b81358181111561143157600080fd5b86602082850101111561144357600080fd5b60209290920196919550909350505050565b60006020828403121561146757600080fd5b610dc382611361565b6000806040838503121561148357600080fd5b61148c83611361565b9150602083013580151581146114a157600080fd5b809150509250929050565b634e487b7160e01b600052604160045260246000fd5b600080600080608085870312156114d857600080fd5b6114e185611361565b93506114ef60208601611361565b925060408501359150606085013567ffffffffffffffff8082111561151357600080fd5b818701915087601f83011261152757600080fd5b813581811115611539576115396114ac565b604051601f8201601f19908116603f01168101908382118183101715611561576115616114ac565b816040528281528a602084870101111561157a57600080fd5b82602086016020830137600060208483010152809550505050505092959194509250565b600080604083850312156115b157600080fd5b6115ba83611361565b91506115c860208401611361565b90509250929050565b600181811c908216806115e557607f821691505b60208210810361160557634e487b7160e01b600052602260045260246000fd5b50919050565b634e487b7160e01b600052601160045260246000fd5b808201808211156104c8576104c861160b565b600060ff821660ff810361164a5761164a61160b565b60010192915050565b601f82111561095b57600081815260208120601f850160051c8101602086101561167a5750805b601f850160051c820191505b8181101561085757828155600101611686565b600019600383901b1c191660019190911b1790565b67ffffffffffffffff8311156116c6576116c66114ac565b6116da836116d483546115d1565b83611653565b6000601f84116001811461170857600085156116f65750838201355b6117008682611699565b84555061104b565b600083815260209020601f19861690835b828110156117395786850135825560209485019460019092019101611719565b50868210156117565760001960f88860031b161c19848701351681555b505060018560011b0183555050505050565b6000808454611776816115d1565b6001828116801561178e57600181146117a3576117d2565b60ff19841687528215158302870194506117d2565b8860005260208060002060005b858110156117c95781548a8201529084019082016117b0565b50505082870194505b5050505083516117e68183602088016112e5565b64173539b7b760d91b9101908152600501949350505050565b815167ffffffffffffffff811115611819576118196114ac565b61182d8161182784546115d1565b84611653565b602080601f83116001811461185c576000841561184a5750858301515b6118548582611699565b865550610857565b600085815260208120601f198616915b8281101561188b5788860151825594840194600190910190840161186c565b50858210156118a95787850151600019600388901b60f8161c191681555b5050505050600190811b01905550565b8181036118c4575050565b6118ce82546115d1565b67ffffffffffffffff8111156118e6576118e66114ac565b6118f48161182784546115d1565b6000601f82116001811461192257600083156119105750848201545b61191a8482611699565b85555061104b565b600085815260209020601f19841690600086815260209020845b8381101561195c578286015482556001958601959091019060200161193c565b50858310156118a95793015460001960f8600387901b161c19169092555050600190811b01905550565b6001600160a01b03858116825284166020820152604081018390526080606082018190526000906119b990830184611309565b9695505050505050565b6000602082840312156119d557600080fd5b8151610dc3816112b256feddf252ad1be2c89b69c2b068fc378daa952ba7f163c4a11628f55a4df523b3efa2646970667358221220b701e6a3346a8eb38be02ba3149a9b6afef56991478755e8fa33f532ceedcd3264736f6c63430008110033",
  "linkReferences": {},
  "deployedLinkReferences": {}
}