{
  "_format": "hh-sol-artifact-1",
  "contractName": "MyNFT",
  "sourceName": "contracts/MyNFT.sol",
  "abi": [
    {
      "inputs": [],
      "stateMutability": "nonpayable",
      "type": "constructor"
    },
    {
      "inputs": [],
      "name": "ApprovalCallerNotOwnerNorApproved",
      "type": "error"
    },
    {
      "inputs": [],
      "name": "ApprovalQueryForNonexistentToken",
      "type": "error"
    },
    {
      "inputs": [],
      "name": "BalanceQueryForZeroAddress",
      "type": "error"
    },
    {
      "inputs": [],
      "name": "MintERC2309QuantityExceedsLimit",
      "type": "error"
    },
    {
      "inputs": [],
      "name": "MintToZeroAddress",
      "type": "error"
    },
    {
      "inputs": [],
      "name": "MintZeroQuantity",
      "type": "error"
    },
    {
      "inputs": [],
      "name": "OwnerQueryForNonexistentToken",
      "type": "error"
    },
    {
      "inputs": [],
      "name": "OwnershipNotInitializedForExtraData",
      "type": "error"
    },
    {
      "inputs": [],
      "name": "TransferCallerNotOwnerNorApproved",
      "type": "error"
    },
    {
      "inputs": [],
      "name": "TransferFromIncorrectOwner",
      "type": "error"
    },
    {
      "inputs": [],
      "name": "TransferToNonERC721ReceiverImplementer",
      "type": "error"
    },
    {
      "inputs": [],
      "name": "TransferToZeroAddress",
      "type": "error"
    },
    {
      "inputs": [],
      "name": "URIQueryForNonexistentToken",
      "type": "error"
    },
    {
      "anonymous": false,
      "inputs": [
        {
          "indexed": true,
          "internalType": "address",
          "name": "owner",
          "type": "address"
        },
        {
          "indexed": true,
          "internalType": "address",
          "name": "approved",
          "type": "address"
        },
        {
          "indexed": true,
          "internalType": "uint256",
          "name": "tokenId",
          "type": "uint256"
        }
      ],
      "name": "Approval",
      "type": "event"
    },
    {
      "anonymous": false,
      "inputs": [
        {
          "indexed": true,
          "internalType": "address",
          "name": "owner",
          "type": "address"
        },
        {
          "indexed": true,
          "internalType": "address",
          "name": "operator",
          "type": "address"
        },
        {
          "indexed": false,
          "internalType": "bool",
          "name": "approved",
          "type": "bool"
        }
      ],
      "name": "ApprovalForAll",
      "type": "event"
    },
    {
      "anonymous": false,
      "inputs": [
        {
          "indexed": true,
          "internalType": "uint256",
          "name": "fromTokenId",
          "type": "uint256"
        },
        {
          "indexed": false,
          "internalType": "uint256",
          "name": "toTokenId",
          "type": "uint256"
        },
        {
          "indexed": true,
          "internalType": "address",
          "name": "from",
          "type": "address"
        },
        {
          "indexed": true,
          "internalType": "address",
          "name": "to",
          "type": "address"
        }
      ],
      "name": "ConsecutiveTransfer",
      "type": "event"
    },
    {
      "anonymous": false,
      "inputs": [
        {
          "indexed": true,
          "internalType": "address",
          "name": "previousOwner",
          "type": "address"
        },
        {
          "indexed": true,
          "internalType": "address",
          "name": "newOwner",
          "type": "address"
        }
      ],
      "name": "OwnershipTransferred",
      "type": "event"
    },
    {
      "anonymous": false,
      "inputs": [
        {
          "indexed": true,
          "internalType": "address",
          "name": "from",
          "type": "address"
        },
        {
          "indexed": true,
          "internalType": "address",
          "name": "to",
          "type": "address"
        },
        {
          "indexed": true,
          "internalType": "uint256",
          "name": "tokenId",
          "type": "uint256"
        }
      ],
      "name": "Transfer",
      "type": "event"
    },
    {
      "inputs": [
        {
          "internalType": "uint256",
          "name": "",
          "type": "uint256"
        }
      ],
      "name": "_ownerOf",
      "outputs": [
        {
          "internalType": "address",
          "name": "",
          "type": "address"
        }
      ],
      "stateMutability": "view",
      "type": "function"
    },
    {
      "inputs": [
        {
          "internalType": "uint256",
          "name": "",
          "type": "uint256"
        }
      ],
      "name": "_tokenURIs",
      "outputs": [
        {
          "internalType": "string",
          "name": "",
          "type": "string"
        }
      ],
      "stateMutability": "view",
      "type": "function"
    },
    {
      "inputs": [
        {
          "internalType": "address",
          "name": "to",
          "type": "address"
        },
        {
          "internalType": "uint256",
          "name": "tokenId",
          "type": "uint256"
        }
      ],
      "name": "approve",
      "outputs": [],
      "stateMutability": "payable",
      "type": "function"
    },
    {
      "inputs": [
        {
          "internalType": "address",
          "name": "owner",
          "type": "address"
        }
      ],
      "name": "balanceOf",
      "outputs": [
        {
          "internalType": "uint256",
          "name": "",
          "type": "uint256"
        }
      ],
      "stateMutability": "view",
      "type": "function"
    },
    {
      "inputs": [
        {
          "internalType": "uint256",
          "name": "tokenId",
          "type": "uint256"
        }
      ],
      "name": "burn",
      "outputs": [],
      "stateMutability": "nonpayable",
      "type": "function"
    },
    {
      "inputs": [
        {
          "internalType": "uint256",
          "name": "tokenId",
          "type": "uint256"
        }
      ],
      "name": "getApproved",
      "outputs": [
        {
          "internalType": "address",
          "name": "",
          "type": "address"
        }
      ],
      "stateMutability": "view",
      "type": "function"
    },
    {
      "inputs": [
        {
          "internalType": "address",
          "name": "owner",
          "type": "address"
        },
        {
          "internalType": "address",
          "name": "operator",
          "type": "address"
        }
      ],
      "name": "isApprovedForAll",
      "outputs": [
        {
          "internalType": "bool",
          "name": "",
          "type": "bool"
        }
      ],
      "stateMutability": "view",
      "type": "function"
    },
    {
      "inputs": [
        {
          "internalType": "uint256",
          "name": "quantity",
          "type": "uint256"
        }
      ],
      "name": "mint",
      "outputs": [],
      "stateMutability": "payable",
      "type": "function"
    },
    {
      "inputs": [],
      "name": "name",
      "outputs": [
        {
          "internalType": "string",
          "name": "",
          "type": "string"
        }
      ],
      "stateMutability": "view",
      "type": "function"
    },
    {
      "inputs": [],
      "name": "owner",
      "outputs": [
        {
          "internalType": "address",
          "name": "",
          "type": "address"
        }
      ],
      "stateMutability": "view",
      "type": "function"
    },
    {
      "inputs": [
        {
          "internalType": "uint256",
          "name": "tokenId",
          "type": "uint256"
        }
      ],
      "name": "ownerOf",
      "outputs": [
        {
          "internalType": "address",
          "name": "owner",
          "type": "address"
        }
      ],
      "stateMutability": "view",
      "type": "function"
    },
    {
      "inputs": [],
      "name": "renounceOwnership",
      "outputs": [],
      "stateMutability": "nonpayable",
      "type": "function"
    },
    {
      "inputs": [
        {
          "internalType": "address",
          "name": "from",
          "type": "address"
        },
        {
          "internalType": "address",
          "name": "to",
          "type": "address"
        },
        {
          "internalType": "uint256",
          "name": "tokenId",
          "type": "uint256"
        }
      ],
      "name": "safeTransferFrom",
      "outputs": [],
      "stateMutability": "payable",
      "type": "function"
    },
    {
      "inputs": [
        {
          "internalType": "address",
          "name": "from",
          "type": "address"
        },
        {
          "internalType": "address",
          "name": "to",
          "type": "address"
        },
        {
          "internalType": "uint256",
          "name": "tokenId",
          "type": "uint256"
        },
        {
          "internalType": "bytes",
          "name": "_data",
          "type": "bytes"
        }
      ],
      "name": "safeTransferFrom",
      "outputs": [],
      "stateMutability": "payable",
      "type": "function"
    },
    {
      "inputs": [
        {
          "internalType": "address",
          "name": "operator",
          "type": "address"
        },
        {
          "internalType": "bool",
          "name": "approved",
          "type": "bool"
        }
      ],
      "name": "setApprovalForAll",
      "outputs": [],
      "stateMutability": "nonpayable",
      "type": "function"
    },
    {
      "inputs": [
        {
          "internalType": "string",
          "name": "baseURI",
          "type": "string"
        }
      ],
      "name": "setBaseURI",
      "outputs": [],
      "stateMutability": "nonpayable",
      "type": "function"
    },
    {
      "inputs": [
        {
          "internalType": "uint256",
          "name": "tokenId",
          "type": "uint256"
        }
      ],
      "name": "setTokenURI",
      "outputs": [],
      "stateMutability": "nonpayable",
      "type": "function"
    },
    {
      "inputs": [
        {
          "internalType": "bytes4",
          "name": "interfaceId",
          "type": "bytes4"
        }
      ],
      "name": "supportsInterface",
      "outputs": [
        {
          "internalType": "bool",
          "name": "",
          "type": "bool"
        }
      ],
      "stateMutability": "view",
      "type": "function"
    },
    {
      "inputs": [],
      "name": "symbol",
      "outputs": [
        {
          "internalType": "string",
          "name": "",
          "type": "string"
        }
      ],
      "stateMutability": "view",
      "type": "function"
    },
    {
      "inputs": [
        {
          "internalType": "uint256",
          "name": "tokenId",
          "type": "uint256"
        }
      ],
      "name": "tokenURI",
      "outputs": [
        {
          "internalType": "string",
          "name": "",
          "type": "string"
        }
      ],
      "stateMutability": "view",
      "type": "function"
    },
    {
      "inputs": [],
      "name": "totalSupply",
      "outputs": [
        {
          "internalType": "uint256",
          "name": "",
          "type": "uint256"
        }
      ],
      "stateMutability": "view",
      "type": "function"
    },
    {
      "inputs": [
        {
          "internalType": "address",
          "name": "from",
          "type": "address"
        },
        {
          "internalType": "address",
          "name": "to",
          "type": "address"
        },
        {
          "internalType": "uint256",
          "name": "tokenId",
          "type": "uint256"
        }
      ],
      "name": "transferFrom",
      "outputs": [],
      "stateMutability": "payable",
      "type": "function"
    },
    {
      "inputs": [
        {
          "internalType": "address",
          "name": "newOwner",
          "type": "address"
        }
      ],
      "name": "transferOwnership",
      "outputs": [],
      "stateMutability": "nonpayable",
      "type": "function"
    }
  ],
  "bytecode": "0x60806040523480156200001157600080fd5b506040518060400160405280600d81526020016c135e53919510dbdb9d1c9858dd609a1b8152506040518060400160405280600381526020016213919560ea1b815250816002908162000065919062000183565b50600362000074828262000183565b5050600080555062000086336200008c565b6200024f565b600880546001600160a01b038381166001600160a01b0319831681179093556040519116919082907f8be0079c531659141344cd1fd0a4f28419497f9722a3daafe3b4186f6b6457e090600090a35050565b634e487b7160e01b600052604160045260246000fd5b600181811c908216806200010957607f821691505b6020821081036200012a57634e487b7160e01b600052602260045260246000fd5b50919050565b601f8211156200017e57600081815260208120601f850160051c81016020861015620001595750805b601f850160051c820191505b818110156200017a5782815560010162000165565b5050505b505050565b81516001600160401b038111156200019f576200019f620000de565b620001b781620001b08454620000f4565b8462000130565b602080601f831160018114620001ef5760008415620001d65750858301515b600019600386901b1c1916600185901b1785556200017a565b600085815260208120601f198616915b828110156200022057888601518255948401946001909101908401620001ff565b50858210156200023f5787850151600019600388901b60f8161c191681555b5050505050600190811b01905550565b61193d806200025f6000396000f3fe6080604052600436106101405760003560e01c80636352211e116100b6578063a22cb4651161006f578063a22cb46514610379578063b88d4fde14610399578063bff26126146103ac578063c87b56dd146103cc578063e985e9c5146103ec578063f2fde38b1461040c57600080fd5b80636352211e146102c857806370a08231146102fe578063715018a61461031e5780638da5cb5b1461033357806395d89b4114610351578063a0712d681461036657600080fd5b806318160ddd1161010857806318160ddd1461020957806323b872dd1461022c578063383505411461023f57806342842e0e1461027557806342966c681461028857806355f804b3146102a857600080fd5b806301ffc9a71461014557806306fdde031461017a578063081812fc1461019c578063095ea7b3146101d45780630bb78ec1146101e9575b600080fd5b34801561015157600080fd5b506101656101603660046111df565b61042c565b60405190151581526020015b60405180910390f35b34801561018657600080fd5b5061018f61047e565b604051610171919061124c565b3480156101a857600080fd5b506101bc6101b736600461125f565b610510565b6040516001600160a01b039091168152602001610171565b6101e76101e2366004611294565b610554565b005b3480156101f557600080fd5b5061018f61020436600461125f565b6105e4565b34801561021557600080fd5b50600154600054035b604051908152602001610171565b6101e761023a3660046112be565b61067e565b34801561024b57600080fd5b506101bc61025a36600461125f565b600a602052600090815260409020546001600160a01b031681565b6101e76102833660046112be565b61080f565b34801561029457600080fd5b506101e76102a336600461125f565b61082f565b3480156102b457600080fd5b506101e76102c33660046112fa565b610888565b3480156102d457600080fd5b506101bc6102e336600461125f565b6000908152600a60205260409020546001600160a01b031690565b34801561030a57600080fd5b5061021e61031936600461136c565b61089d565b34801561032a57600080fd5b506101e76108ec565b34801561033f57600080fd5b506008546001600160a01b03166101bc565b34801561035d57600080fd5b5061018f610900565b6101e761037436600461125f565b61090f565b34801561038557600080fd5b506101e7610394366004611387565b6109ec565b6101e76103a73660046113d9565b610a58565b3480156103b857600080fd5b506101e76103c736600461125f565b610aa2565b3480156103d857600080fd5b5061018f6103e736600461125f565b610b24565b3480156103f857600080fd5b506101656104073660046114b5565b610c11565b34801561041857600080fd5b506101e761042736600461136c565b610c3f565b60006301ffc9a760e01b6001600160e01b03198316148061045d57506380ac58cd60e01b6001600160e01b03198316145b806104785750635b5e139f60e01b6001600160e01b03198316145b92915050565b60606002805461048d906114e8565b80601f01602080910402602001604051908101604052809291908181526020018280546104b9906114e8565b80156105065780601f106104db57610100808354040283529160200191610506565b820191906000526020600020905b8154815290600101906020018083116104e957829003601f168201915b5050505050905090565b600061051b82610cb5565b610538576040516333d1c03960e21b815260040160405180910390fd5b506000908152600660205260409020546001600160a01b031690565b6000818152600a60205260409020546001600160a01b031633146105b65760405162461bcd60e51b81526020600482015260146024820152732737ba10309037bbb732b91037b3103a37b5b2b760611b60448201526064015b60405180910390fd5b6000908152600a6020526040902080546001600160a01b0319166001600160a01b0392909216919091179055565b600b60205260009081526040902080546105fd906114e8565b80601f0160208091040260200160405190810160405280929190818152602001828054610629906114e8565b80156106765780601f1061064b57610100808354040283529160200191610676565b820191906000526020600020905b81548152906001019060200180831161065957829003601f168201915b505050505081565b600061068982610cdc565b9050836001600160a01b0316816001600160a01b0316146106bc5760405162a1148160e81b815260040160405180910390fd5b600082815260066020526040902080546106e88187335b6001600160a01b039081169116811491141790565b610713576106f68633610c11565b61071357604051632ce44b5f60e11b815260040160405180910390fd5b6001600160a01b03851661073a57604051633a954ecd60e21b815260040160405180910390fd5b801561074557600082555b6001600160a01b038681166000908152600560205260408082208054600019019055918716808252919020805460010190554260a01b17600160e11b17600085815260046020526040812091909155600160e11b841690036107d7576001840160008181526004602052604081205490036107d55760005481146107d55760008181526004602052604090208490555b505b83856001600160a01b0316876001600160a01b03166000805160206118e883398151915260405160405180910390a45b505050505050565b61082a83838360405180602001604052806000815250610a58565b505050565b61083881610cb5565b61087c5760405162461bcd60e51b8152602060048201526015602482015274151bdad95b925908191bd95cdb89dd08195e1a5cdd605a1b60448201526064016105ad565b61088581610d4a565b50565b610890610d55565b600c61082a82848361157d565b60006001600160a01b0382166108c6576040516323d3ad8160e21b815260040160405180910390fd5b506001600160a01b031660009081526005602052604090205467ffffffffffffffff1690565b6108f4610d55565b6108fe6000610daf565b565b60606003805461048d906114e8565b6000811161095f5760405162461bcd60e51b815260206004820152601b60248201527f496e73756666696369656e7420746f6b656e7320746f206d696e74000000000060448201526064016105ad565b6001546000540360095560005b818160ff1610156109e15761098b8160ff166009546103c7919061164d565b33600a60008360ff166009546109a1919061164d565b8152602081019190915260400160002080546001600160a01b0319166001600160a01b0392909216919091179055806109d981611660565b91505061096c565b506108853382610e01565b3360008181526007602090815260408083206001600160a01b03871680855290835292819020805460ff191686151590811790915590519081529192917f17307eab39ab6107e8899845ad3d59bd9653f200f220920489ca2b5937696c31910160405180910390a35050565b610a6384848461067e565b6001600160a01b0383163b15610a9c57610a7f84848484610e1b565b610a9c576040516368d2bf6b60e11b815260040160405180910390fd5b50505050565b600c8054610aaf906114e8565b9050600003610acd5760405180602001604052806000815250610af9565b600c610ad882610f06565b604051602001610ae992919061167f565b6040516020818303038152906040525b600d90610b069082611706565b506000818152600b60205260409020610b20600d826117c0565b5050565b6060610b2f82610cb5565b610b735760405162461bcd60e51b8152602060048201526015602482015274151bdad95b925908191bd95cdb89dd08195e1a5cdd605a1b60448201526064016105ad565b6000828152600b602052604090208054610b8c906114e8565b80601f0160208091040260200160405190810160405280929190818152602001828054610bb8906114e8565b8015610c055780601f10610bda57610100808354040283529160200191610c05565b820191906000526020600020905b815481529060010190602001808311610be857829003601f168201915b50505050509050919050565b6001600160a01b03918216600090815260076020908152604080832093909416825291909152205460ff1690565b610c47610d55565b6001600160a01b038116610cac5760405162461bcd60e51b815260206004820152602660248201527f4f776e61626c653a206e6577206f776e657220697320746865207a65726f206160448201526564647265737360d01b60648201526084016105ad565b61088581610daf565b6000805482108015610478575050600090815260046020526040902054600160e01b161590565b600081600054811015610d315760008181526004602052604081205490600160e01b82169003610d2f575b80600003610d28575060001901600081815260046020526040902054610d07565b9392505050565b505b604051636f96cda160e11b815260040160405180910390fd5b610885816000610f4a565b6008546001600160a01b031633146108fe5760405162461bcd60e51b815260206004820181905260248201527f4f776e61626c653a2063616c6c6572206973206e6f7420746865206f776e657260448201526064016105ad565b600880546001600160a01b038381166001600160a01b0319831681179093556040519116919082907f8be0079c531659141344cd1fd0a4f28419497f9722a3daafe3b4186f6b6457e090600090a35050565b610b20828260405180602001604052806000815250611082565b604051630a85bd0160e11b81526000906001600160a01b0385169063150b7a0290610e5090339089908890889060040161188d565b6020604051808303816000875af1925050508015610e8b575060408051601f3d908101601f19168201909252610e88918101906118ca565b60015b610ee9573d808015610eb9576040519150601f19603f3d011682016040523d82523d6000602084013e610ebe565b606091505b508051600003610ee1576040516368d2bf6b60e11b815260040160405180910390fd5b805181602001fd5b6001600160e01b031916630a85bd0160e11b149050949350505050565b606060a06040510180604052602081039150506000815280825b600183039250600a81066030018353600a900480610f205750819003601f19909101908152919050565b6000610f5583610cdc565b905080600080610f7386600090815260066020526040902080549091565b915091508415610fb357610f888184336106d3565b610fb357610f968333610c11565b610fb357604051632ce44b5f60e11b815260040160405180910390fd5b8015610fbe57600082555b6001600160a01b038316600081815260056020526040902080546fffffffffffffffffffffffffffffffff0190554260a01b17600360e01b17600087815260046020526040812091909155600160e11b8516900361104c5760018601600081815260046020526040812054900361104a57600054811461104a5760008181526004602052604090208590555b505b60405186906000906001600160a01b038616906000805160206118e8833981519152908390a45050600180548101905550505050565b61108c83836110ef565b6001600160a01b0383163b1561082a576000548281035b6110b66000868380600101945086610e1b565b6110d3576040516368d2bf6b60e11b815260040160405180910390fd5b8181106110a35781600054146110e857600080fd5b5050505050565b60008054908290036111145760405163b562e8dd60e01b815260040160405180910390fd5b6001600160a01b03831660008181526005602090815260408083208054680100000000000000018802019055848352600490915281206001851460e11b4260a01b178317905582840190839083906000805160206118e88339815191528180a4600183015b81811461119f57808360006000805160206118e8833981519152600080a4600101611179565b50816000036111c057604051622e076360e81b815260040160405180910390fd5b60005550505050565b6001600160e01b03198116811461088557600080fd5b6000602082840312156111f157600080fd5b8135610d28816111c9565b60005b838110156112175781810151838201526020016111ff565b50506000910152565b600081518084526112388160208601602086016111fc565b601f01601f19169290920160200192915050565b602081526000610d286020830184611220565b60006020828403121561127157600080fd5b5035919050565b80356001600160a01b038116811461128f57600080fd5b919050565b600080604083850312156112a757600080fd5b6112b083611278565b946020939093013593505050565b6000806000606084860312156112d357600080fd5b6112dc84611278565b92506112ea60208501611278565b9150604084013590509250925092565b6000806020838503121561130d57600080fd5b823567ffffffffffffffff8082111561132557600080fd5b818501915085601f83011261133957600080fd5b81358181111561134857600080fd5b86602082850101111561135a57600080fd5b60209290920196919550909350505050565b60006020828403121561137e57600080fd5b610d2882611278565b6000806040838503121561139a57600080fd5b6113a383611278565b9150602083013580151581146113b857600080fd5b809150509250929050565b634e487b7160e01b600052604160045260246000fd5b600080600080608085870312156113ef57600080fd5b6113f885611278565b935061140660208601611278565b925060408501359150606085013567ffffffffffffffff8082111561142a57600080fd5b818701915087601f83011261143e57600080fd5b813581811115611450576114506113c3565b604051601f8201601f19908116603f01168101908382118183101715611478576114786113c3565b816040528281528a602084870101111561149157600080fd5b82602086016020830137600060208483010152809550505050505092959194509250565b600080604083850312156114c857600080fd5b6114d183611278565b91506114df60208401611278565b90509250929050565b600181811c908216806114fc57607f821691505b60208210810361151c57634e487b7160e01b600052602260045260246000fd5b50919050565b601f82111561082a57600081815260208120601f850160051c810160208610156115495750805b601f850160051c820191505b8181101561080757828155600101611555565b600019600383901b1c191660019190911b1790565b67ffffffffffffffff831115611595576115956113c3565b6115a9836115a383546114e8565b83611522565b6000601f8411600181146115d757600085156115c55750838201355b6115cf8682611568565b8455506110e8565b600083815260209020601f19861690835b8281101561160857868501358255602094850194600190920191016115e8565b50868210156116255760001960f88860031b161c19848701351681555b505060018560011b0183555050505050565b634e487b7160e01b600052601160045260246000fd5b8082018082111561047857610478611637565b600060ff821660ff810361167657611676611637565b60010192915050565b600080845461168d816114e8565b600182811680156116a557600181146116ba576116e9565b60ff19841687528215158302870194506116e9565b8860005260208060002060005b858110156116e05781548a8201529084019082016116c7565b50505082870194505b5050505083516116fd8183602088016111fc565b01949350505050565b815167ffffffffffffffff811115611720576117206113c3565b6117348161172e84546114e8565b84611522565b602080601f83116001811461176357600084156117515750858301515b61175b8582611568565b865550610807565b600085815260208120601f198616915b8281101561179257888601518255948401946001909101908401611773565b50858210156117b05787850151600019600388901b60f8161c191681555b5050505050600190811b01905550565b8181036117cb575050565b6117d582546114e8565b67ffffffffffffffff8111156117ed576117ed6113c3565b6117fb8161172e84546114e8565b6000601f82116001811461182957600083156118175750848201545b6118218482611568565b8555506110e8565b600085815260209020601f19841690600086815260209020845b838110156118635782860154825560019586019590910190602001611843565b50858310156117b05793015460001960f8600387901b161c19169092555050600190811b01905550565b6001600160a01b03858116825284166020820152604081018390526080606082018190526000906118c090830184611220565b9695505050505050565b6000602082840312156118dc57600080fd5b8151610d28816111c956feddf252ad1be2c89b69c2b068fc378daa952ba7f163c4a11628f55a4df523b3efa26469706673582212203ec8bcdfd98c553ef83ac93779718952054efedf37957f0a8c7b7d70e022cdbe64736f6c63430008110033",
  "linkReferences": {},
  "deployedLinkReferences": {}
}